:100000000C9463000C948B000C948B000C948B006C
:100010000C948B000C948B000C948B000C948B0034
:100020000C948B000C948B000C948B000C948B0024
:100030000C948B000C948B000C948B000C948B0014
:100040000C94C8030C948B000C94F8040C943305A6
:100050000C948B000C948B000C948B000C948B00F4
:100060000C9419020C948B0000000000240027005F
:100070002A0000000000250028002B0000000000DE
:1000800023002600290004040404040404040202DA
:100090000202020203030303030301020408102007
:1000A0004080010204081020010204081020000012
:1000B0000007000201000003040600000000000029
:1000C00000000F01AB0611241FBECFEFD8E0DEBF4A
:1000D000CDBF11E0A0E0B1E0ECE1FFE002C005908F
:1000E0000D92A032B107D9F712E0A0E2B1E001C051
:1000F0001D92A339B107E1F710E0C6ECD0E004C0CF
:100100002297FE010E948807C23CD107C9F70E94CE
:1001100002070C948C070C9400000F931F93182F68
:10012000062F8430E0F486E691E06FE270E00E94F2
:10013000D500112399F486E691E060E00E94570112
:1001400086E691E0602F0E94570186E691E00E94CA
:100150009A0190E0882321F491E002C002C090E06F
:10016000892F1F910F9108951F9310E080E0612F58
:100170000E948D006AEF70E080E090E00E943604FB
:100180001F5FF4CF86E691E00E949E0181E792E036
:1001900040E855E260E070E00E946E0568EE73E0B2
:1001A00080E090E00E943604089581E0809365012C
:1001B00060934201109263011092640108952091AE
:1001C000410130E080914001281B3109C9010895A7
:1001D0004091400180914101481718F02FEF3FEF07
:1001E0000AC0E42FF0E0E05EFE4F8081282F30E06F
:1001F0004F5F40934001C9010895E0914001809113
:100200004101E81718F0EFEFFFEF06C0F0E0E05E05
:10021000FE4F8081E82FF0E0CF01089508951092FD
:1002200069011092680188EE93E0A0E0B0E080934D
:100230006A0190936B01A0936C01B0936D0184E00F
:1002400091E090936701809366010895CF92DF92C9
:10025000EF92FF920F931F93CF93DF937C016B017B
:100260008A01809165018823A1F0C0E0D0E00DC033
:10027000D701ED91FC91D601AC0FBD1F0190F0812B
:10028000E02DC7016C9109952196C017D10780F325
:1002900004C0CB01642F0E94FE01C801DF91CF9101
:1002A0001F910F91FF90EF90DF90CF900895DF9313
:1002B000CF930F92CDB7DEB7FC01698380916501C2
:1002C0008823C9F080916401803238F081E090E0A9
:1002D0009383828320E030E015C080916301E82F92
:1002E000F0E0ED5BFE4F998190838F5F8093630117
:1002F0008093640105C0CE01019661E00E94FE0179
:1003000021E030E0C9010F90CF91DF9108950F9364
:10031000062F8091420163E471E04091640121E085
:100320000E94A9011092630110926401109265016C
:100330000F91089561E00E94870108951092400195
:100340001092410110926301109264010E94AA036D
:1003500008950F931F93582F122F413210F081E010
:100360004AC0809172018823E1F782E08093720194
:10037000009374018FEF8093DF0110929A014093F4
:100380009B01AAE7B1E0FB0102C081918D938E2F02
:10039000861B8417D0F31092730180917301550F5F
:1003A000852B8093730180917501813041F4109207
:1003B0007501809173018093BB0085EC01C085EECF
:1003C0008093BC00112321F0809172018230E1F30F
:1003D0008091DF018F3F11F480E00DC08091DF013B
:1003E000803211F482E007C08091DF01803311F088
:1003F00084E001C083E01F910F910895482F61327E
:1004000010F081E0089580917201843011F082E053
:1004100008956093BD01ACE9B1E0842F9C01F9011E
:1004200002C081918D938E2F841B8617D0F380E0BC
:1004300008951F920F920FB60F9211242F933F939E
:100440004F935F936F937F938F939F93AF93BF93DC
:10045000EF93FF938091B90090E0887F9070803691
:10046000910509F4F2C081369105CCF588329105E9
:1004700009F47BC089329105B4F48031910509F407
:100480006FC0813191053CF4009709F447C108978A
:1004900009F04FC165C08831910509F466C08097A5
:1004A00009F047C182C08034910509F4A4C08134A9
:1004B000910544F48033910509F482C0C89709F08E
:1004C00038C189C08035910509F489C08835910506
:1004D00009F496C08834910509F02BC1AEC0883963
:1004E000910509F413C189399105ECF48837910518
:1004F00009F4ABC0893791054CF48836910509F4AD
:10050000A4C08037910509F014C19FC088389105B7
:1005100009F4FCC08039910509F49DC0803891052B
:1005200009F007C198C0803B910509F4C6C0813B22
:1005300091054CF4803A910509F49FC0883A9105E1
:1005400009F0F7C0BAC0803C910509F4E3C0883CCB
:10055000910509F4DFC0883B910509F0EAC0C2C0EB
:10056000809173018093BB00CFC090919A018091DC
:100570009B01981768F490919A01E92FF0E0E658F2
:10058000FE4F80818093BB009F5F90939A01BCC017
:1005900080917401882309F44BC085ED8093BC00E1
:1005A0008091BC0084FDFCCFC2C080E28093DF015B
:1005B00085ED8093BC008091BC0084FDFCCFB7C06A
:1005C00080E38093DF0185ED8093BC008091BC00C7
:1005D00084FDFCCFACC088E38093DF019BC0809199
:1005E0009A019091BB00E82FF0E0E658FE4F90830F
:1005F0008F5F80939A0190919A0180919B0182C0B4
:1006000080919A019091BB00E82FF0E0E658FE4FF0
:1006100090838F5F80939A0180917401882341F0C9
:1006200085ED8093BC008091BC0084FDFCCF7FC031
:1006300081E08093750184EA6EC085ED8093BC00F3
:100640008091BC0084FDFCCF72C083E08093720176
:100650001092DE0159C08091DE01803208F056C050
:100660008091DE019091BB00E82FF0E0E254FE4F54
:1006700090838F5F8093DE0147C08091DE018032DE
:1006800030F4E091DE01F0E0E254FE4F108285ED9F
:100690008093BC008091BC0084FDFCCF109272015D
:1006A0006091DE01E0917801F09179018EEB91E0AB
:1006B00070E009951092DE012DC084E080937201F4
:1006C0001092BC011092BD01E0917601F09177018A
:1006D00009958091BD01882329F481E08093BD01B3
:1006E00010929C019091BC01E92FF0E0E456FE4F7E
:1006F00080818093BB009F5F9093BC019091BC016F
:100700008091BD01981710F485EC01C085E88093B5
:10071000BC000FC085EC8093BC0009C01092DF01C3
:1007200085ED8093BC008091BC0084FDFCCF1092CD
:100730007201FF91EF91BF91AF919F918F917F9146
:100740006F915F914F913F912F910F900FBE0F903E
:100750001F9018951092720181E08093740110929D
:10076000750182E161E00E94C40483E161E00E94BE
:10077000C404E9EBF0E080818E7F808380818D7FEF
:10078000808388E48093B80085E48093BC0008955A
:100790001F920F920FB60F9211242F933F938F93B6
:1007A0009F93AF93BF938091E4019091E501A09155
:1007B000E601B091E7013091E8010196A11DB11D5C
:1007C000232F2D5F2D3720F02D570196A11DB11D30
:1007D0002093E8018093E4019093E501A093E60162
:1007E000B093E7018091E0019091E101A091E201D5
:1007F000B091E3010196A11DB11D8093E00190939A
:10080000E101A093E201B093E301BF91AF919F9109
:100810008F913F912F910F900FBE0F901F901895C1
:100820009FB7F8942091E0013091E1014091E201FD
:100830005091E30186B5A89B06C08F3F21F02F5F42
:100840003F4F4F4F5F4F9FBF542F432F322F2227D1
:10085000280F311D411D511D82E0220F331F441FFF
:10086000551F8A95D1F7B901CA010895EF92FF92F9
:100870000F931F93CF93DF937B018C010E94100491
:10088000EB010EC00E9410046C1B7D0B685E734070
:10089000C8F30894E108F10801091109C851DC4FB7
:1008A000E114F1040105110569F7DF91CF911F9162
:1008B0000F91FF90EF900895789484B5826084BD85
:1008C00084B5816084BD85B5826085BD85B5816054
:1008D00085BDEEE6F0E0808181608083E1E8F0E0B4
:1008E0001082808182608083808181608083E0E8E3
:1008F000F0E0808181608083E1EBF0E080818460C2
:100900008083E0EBF0E0808181608083EAE7F0E0C3
:100910008081846080838081826080838081816027
:1009200080838081806880831092C1000895833025
:1009300071F0843028F48130A1F0823021F514C0A8
:100940008630B1F08730D1F08430E9F404C0809172
:1009500080008F7703C0809180008F7D809380001E
:10096000089584B58F7702C084B58F7D84BD0895C6
:100970008091B0008F778093B00008958091B0008F
:100980008F7D8093B0000895FF920F931F93F62EF2
:10099000482F50E0CA0182559F4FFC012491CA01A3
:1009A00086569F4FFC0114914A575F4FFA010491FC
:1009B0000023C9F0222319F0822F0E949704E02F10
:1009C000F0E0EE0FFF1FEE58FF4FA591B4919FB7D7
:1009D000F894FF2021F48C911095812302C08C9112
:1009E000812B8C939FBF1F910F91FF9008950895C5
:1009F0001F920F920FB60F9211242F933F934F9394
:100A00008F939F93EF93FF938091C00082FD1DC051
:100A10004091C6002091290230912A022F5F3F4F5A
:100A20002F73307080912B0290912C022817390778
:100A300071F0E0912902F0912A02E751FE4F4083C4
:100A400030932A022093290202C08091C600FF91B0
:100A5000EF919F918F914F913F912F910F900FBEEA
:100A60000F901F9018951F920F920FB60F9211249E
:100A70002F933F938F939F93EF93FF9320916D025A
:100A800030916E0280916F029091700228173907A1
:100A900031F48091C1008F7D8093C10014C0E0913A
:100AA0006F02F0917002E35DFD4F208180916F0233
:100AB0009091700201968F73907090937002809362
:100AC0006F022093C600FF91EF919F918F913F910C
:100AD0002F910F900FBE0F901F901895AF92BF925D
:100AE000DF92EF92FF920F931F93CF93DF93EC016E
:100AF0007A018B01DD24403081EE580780E06807E1
:100B000080E0780711F0DD24D39491E0A92EB12C78
:100B1000EC89FD89DD2069F0C50108A002C0880FBD
:100B2000991F0A94E2F7808360E079E08DE390E01A
:100B300005C0108260E874E88EE190E0A80197019A
:100B40000E945007215030404040504056954795F4
:100B50003795279580E12030380720F0DD2011F00F
:100B6000DD24D6CFE889F9893083EA89FB8920839F
:100B700019A2EE89FF89408121E030E0C9010C8C87
:100B800002C0880F991F0A94E2F7482B4083EE8930
:100B9000FF894081C9010D8C02C0880F991F0A94FA
:100BA000E2F7482B4083EE89FF894081C9010E8C12
:100BB00002C0880F991F0A94E2F7482B4083EE8900
:100BC000FF8980810F8C02C0220F331F0A94E2F745
:100BD000209528232083DF91CF911F910F91FF90C3
:100BE000EF90DF90BF90AF900895DC011C96ED91DF
:100BF000FC911D97E05CFF4F8191919120813181A3
:100C0000805C9F4F821B930B60E470E00E943D0765
:100C1000089581E792E00E94F505892B11F00E946A
:100C2000F7040895DC011C96ED91FC911D97E05CA2
:100C3000FF4F20813181E054F040DF01AE5BBF4FB8
:100C40008D919C9111972817390719F42FEF3FEFD9
:100C500007C08D919C91E80FF91F8081282F30E00B
:100C6000C9010895DC011C96ED91FC911D97E05C93
:100C7000FF4F20813181E054F040DF01AE5BBF4F78
:100C80008D919C9111972817390719F42FEF3FEF99
:100C900010C08D919C911197E80FF91F20818D91C3
:100CA0009C91119701968F73907011969C938E93DF
:100CB00030E0C9010895DC0191968C9191978823C9
:100CC00039F05496ED91FC915597808186FFF9CFCC
:100CD00091961C920895CF93DF93EC01EE85FF85EA
:100CE000E05CFF4F20813181E054F0402F5F3F4FA7
:100CF0002F733070DF01AE5BBF4F8D919C911197C8
:100D000028173907D1F3E05CFF4F80819181E054CF
:100D1000F040E80FF91F6083EE85FF85E05CFF4F30
:100D200031832083EE89FF89208181E090E00F8C60
:100D300002C0880F991F0A94E2F7282B208381E0D4
:100D400089A3EC89FD8980818064808381E090E0C3
:100D5000DF91CF910895109274021092730288EE81
:100D600093E0A0E0B0E08093750290937602A093A8
:100D70007702B093780284E191E0909372028093BD
:100D8000710289EE91E090937E0280937D028DE264
:100D900092E09093800280937F0285EC90E09093A4
:100DA00082028093810284EC90E09093840280938D
:100DB000830280EC90E0909386028093850281EC20
:100DC00090E0909388028093870282EC90E0909369
:100DD0008A028093890286EC90E090938C02809343
:100DE0008B0284E080938D0283E080938E0287E003
:100DF00080938F0285E08093900281E0809391023E
:100E000008950895CF93DF930E945C040E94010728
:100E10000E94C200C9E0D6E00E94B4002097E1F32E
:100E20000E940906F9CFCF92DF92EF92FF920F93C3
:100E30001F93CF93DF937C016B018A01C0E0D0E068
:100E40000FC0D6016D916D01D701ED91FC9101901C
:100E5000F081E02DC7010995C80FD91F015010403E
:100E60000115110571F7CE01DF91CF911F910F91FF
:100E7000FF90EF90DF90CF90089597FB092E072603
:100E80000AD077FD04D02ED006D000201AF4709539
:100E900061957F4F0895F6F7909581959F4F08953E
:100EA000A1E21A2EAA1BBB1BFD010DC0AA1FBB1F6E
:100EB000EE1FFF1FA217B307E407F50720F0A21BE0
:100EC000B30BE40BF50B661F771F881F991F1A944D
:100ED00069F760957095809590959B01AC01BD0177
:100EE000CF010895AA1BBB1B51E107C0AA1FBB1F5E
:100EF000A617B70710F0A61BB70B881F991F5A95A6
:100F0000A9F780959095BC01CD010895EE0FFF1FC4
:0C0F10000590F491E02D0994F894FFCFB7
:100F1C000000000057012601DF00E800FD000E0173
:100F2C00000000006B061307F505320612065B067F
:00000001FF
