:100000000C9463000C948B000C948B000C948B006C
:100010000C948B000C948B000C948B000C948B0034
:100020000C948B000C948B000C948B000C948B0024
:100030000C948B000C948B000C948B000C948B0014
:100040000C9404040C948B000C9434050C946F05F0
:100050000C948B000C948B000C948B000C948B00F4
:100060000C9455020C948B00000000002400270023
:100070002A0000000000250028002B0000000000DE
:1000800023002600290004040404040404040202DA
:100090000202020203030303030301020408102007
:1000A0004080010204081020010204081020000012
:1000B0000007000201000003040600000000000029
:1000C00000004B01E70611241FBECFEFD8E0DEBFD2
:1000D000CDBF11E0A0E0B1E0EEE5F1E102C0059096
:1000E0000D92AC32B107D9F712E0ACE2B1E001C039
:1000F0001D92AF39B107E1F710E0C6ECD0E004C0C3
:100100002297FE010E94A908C23CD107C9F70E94AC
:100110003E070C94AD080C9400000895EF92FF92F6
:100120000F931F93182F062FF42EE22E82E791E0F3
:100130006FE270E00E94110182E791E060E00E94AE
:10014000930182E791E0612F0E94930182E791E0A1
:1001500060E10E94930182E791E0602F0E94930189
:1001600082E791E060E60E94930182E791E06F2DC3
:100170000E94930182E791E060E70E94930182E789
:1001800091E06E2D0E94930182E791E00E94D601DA
:1001900090E0882309F491E0892F1F910F91FF903F
:1001A000EF900895CF92DF92EF92FF921F9382E734
:1001B00091E00E94DA018DE792E040E855E260E0CC
:1001C00070E00E94AA0560ED77E080E090E00E9478
:1001D00072040E944C046B017C0110E0812F612F9E
:1001E000412F212F0E948E001F5F1F3FB9F78DE71F
:1001F00092E060E071E00E943C080E944C04AB0178
:10020000BC014C195D096E097F098DE792E02AE077
:1002100030E00E9428081F91FF90EF90DF90CF9070
:10022000089581E08093710160934E0110926F01F7
:1002300010927001089520914D0130E080914C01A1
:10024000281B3109C901089540914C0180914D014D
:10025000481718F02FEF3FEF0AC0E42FF0E0E45DFD
:10026000FE4F8081282F30E04F5F40934C01C90141
:100270000895E0914C0180914D01E81718F0EFEFDF
:10028000FFEF06C0F0E0E45DFE4F8081E82FF0E074
:10029000CF0108950895109275011092740188EEAF
:1002A00093E0A0E0B0E08093760190937701A09373
:1002B0007801B093790180E191E09093730180938C
:1002C00072010895CF92DF92EF92FF920F931F93E6
:1002D000CF93DF937C016B018A01809171018823A8
:1002E000A1F0C0E0D0E00DC0D701ED91FC91D601A6
:1002F000AC0FBD1F0190F081E02DC7016C910995F5
:100300002196C017D10780F304C0CB01642F0E944F
:100310003A02C801DF91CF911F910F91FF90EF90AA
:10032000DF90CF900895DF93CF930F92CDB7DEB7D4
:10033000FC016983809171018823C9F0809170016B
:10034000803238F081E090E09383828320E030E0D7
:1003500015C080916F01E82FF0E0E15BFE4F9981BD
:1003600090838F5F80936F018093700105C0CE01F1
:10037000019661E00E943A0221E030E0C9010F904D
:10038000CF91DF9108950F93062F80914E016FE476
:1003900071E04091700121E00E94E50110926F012F
:1003A00010927001109271010F91089561E00E9406
:1003B000C301089510924C0110924D0110926F01EB
:1003C000109270010E94E60308950F931F93582F17
:1003D000122F413210F081E04AC080917E018823C3
:1003E000E1F782E080937E01009380018FEF80939C
:1003F000EB011092A6014093A701A6E8B1E0FB0132
:1004000002C081918D938E2F861B8417D0F310929A
:100410007F0180917F01550F852B80937F01809113
:100420008101813041F41092810180917F0180939C
:10043000BB0085EC01C085EE8093BC00112321F048
:1004400080917E018230E1F38091EB018F3F11F4C6
:1004500080E00DC08091EB01803211F482E007C092
:100460008091EB01803311F084E001C083E01F91A3
:100470000F910895482F613210F081E00895809126
:100480007E01843011F082E008956093C901A8EAEA
:10049000B1E0842F9C01F90102C081918D938E2FD0
:1004A000841B8617D0F380E008951F920F920FB639
:1004B0000F9211242F933F934F935F936F937F93EA
:1004C0008F939F93AF93BF93EF93FF938091B90066
:1004D00090E0887F90708036910509F4F2C08136F3
:1004E0009105CCF58832910509F47BC089329105DC
:1004F000B4F48031910509F46FC0813191053CF469
:10050000009709F447C1089709F04FC165C08831C9
:10051000910509F466C0809709F047C182C0803414
:10052000910509F4A4C08134910544F48033910508
:1005300009F482C0C89709F038C189C08035910597
:1005400009F489C08835910509F496C0883491056D
:1005500009F02BC1AEC08839910509F413C189395E
:100560009105ECF48837910509F4ABC08937910502
:100570004CF48836910509F4A4C08037910509F040
:1005800014C19FC08838910509F4FCC080399105D9
:1005900009F49DC08038910509F007C198C0803BDF
:1005A000910509F4C6C0813B91054CF4803A910550
:1005B00009F49FC0883A910509F0F7C0BAC0803CA1
:1005C000910509F4E3C0883C910509F4DFC0883B3C
:1005D000910509F0EAC0C2C080917F018093BB0001
:1005E000CFC09091A6018091A701981768F49091CF
:1005F000A601E92FF0E0EA57FE4F80818093BB000F
:100600009F5F9093A601BCC080918001882309F46C
:100610004BC085ED8093BC008091BC0084FDFCCF75
:10062000C2C080E28093EB0185ED8093BC00809195
:10063000BC0084FDFCCFB7C080E38093EB0185ED67
:100640008093BC008091BC0084FDFCCFACC088E3EB
:100650008093EB019BC08091A6019091BB00E82F95
:10066000F0E0EA57FE4F90838F5F8093A601909150
:10067000A6018091A70182C08091A6019091BB0044
:10068000E82FF0E0EA57FE4F90838F5F8093A6013A
:1006900080918001882341F085ED8093BC0080919A
:1006A000BC0084FDFCCF7FC081E08093810184EA9F
:1006B0006EC085ED8093BC008091BC0084FDFCCFB2
:1006C00072C083E080937E011092EA0159C080914C
:1006D000EA01803208F056C08091EA019091BB0097
:1006E000E82FF0E0E653FE4F90838F5F8093EA019E
:1006F00047C08091EA01803230F4E091EA01F0E0F5
:10070000E653FE4F108285ED8093BC008091BC00C3
:1007100084FDFCCF10927E016091EA01E09184019A
:10072000F09185018AEC91E070E009951092EA0160
:100730002DC084E080937E011092C8011092C901FF
:10074000E0918201F091830109958091C90188238C
:1007500029F481E08093C9011092A8019091C80109
:10076000E92FF0E0E855FE4F80818093BB009F5F4A
:100770009093C8019091C8018091C901981710F415
:1007800085EC01C085E88093BC000FC085EC8093A8
:10079000BC0009C01092EB0185ED8093BC008091F4
:1007A000BC0084FDFCCF10927E01FF91EF91BF91C0
:1007B000AF919F918F917F916F915F914F913F91F9
:1007C0002F910F900FBE0F901F90189510927E01E1
:1007D00081E0809380011092810182E161E00E94BA
:1007E000000583E161E00E940005E9EBF0E0808113
:1007F0008E7F808380818D7F808388E48093B800A2
:1008000085E48093BC0008951F920F920FB60F925B
:1008100011242F933F938F939F93AF93BF93809116
:10082000F0019091F101A091F201B091F3013091AA
:10083000F4010196A11DB11D232F2D5F2D3720F04E
:100840002D570196A11DB11D2093F4018093F00155
:100850009093F101A093F201B093F3018091EC0128
:100860009091ED01A091EE01B091EF010196A11DD3
:10087000B11D8093EC019093ED01A093EE01B09334
:10088000EF01BF91AF919F918F913F912F910F9069
:100890000FBE0F901F9018959FB7F8942091EC0110
:1008A0003091ED014091EE015091EF0186B5A89B8A
:1008B00006C08F3F21F02F5F3F4F4F4F5F4F9FBFCD
:1008C000542F432F322F2227280F311D411D511D38
:1008D00082E0220F331F441F551F8A95D1F7B901BB
:1008E000CA010895EF92FF920F931F93CF93DF9366
:1008F0007B018C010E944C04EB010EC00E944C0451
:100900006C1B7D0B685E7340C8F30894E108F10826
:1009100001091109C851DC4FE114F1040105110569
:1009200069F7DF91CF911F910F91FF90EF9008959C
:10093000789484B5826084BD84B5816084BD85B5BA
:10094000826085BD85B5816085BDEEE6F0E0808181
:1009500081608083E1E8F0E01082808182608083A2
:10096000808181608083E0E8F0E080818160808325
:10097000E1EBF0E0808184608083E0EBF0E0808157
:1009800081608083EAE7F0E08081846080838081F9
:1009900082608083808181608083808180688083A1
:1009A0001092C1000895833071F0843028F48130B2
:1009B000A1F0823021F514C08630B1F08730D1F03B
:1009C0008430E9F404C0809180008F7703C0809167
:1009D00080008F7D80938000089584B58F7702C05A
:1009E00084B58F7D84BD08958091B0008F7780930A
:1009F000B00008958091B0008F7D8093B00008957D
:100A0000FF920F931F93F62E482F50E0CA01825594
:100A10009F4FFC012491CA0186569F4FFC011491FF
:100A20004A575F4FFA0104910023C9F0222319F0BD
:100A3000822F0E94D304E02FF0E0EE0FFF1FEE584C
:100A4000FF4FA591B4919FB7F894FF2021F48C91AA
:100A50001095812302C08C91812B8C939FBF1F9195
:100A60000F91FF90089508951F920F920FB60F9265
:100A700011242F933F934F938F939F93EF93FF9363
:100A80008091C00082FD1DC04091C60020913502BA
:100A9000309136022F5F3F4F2F73307080913702B5
:100AA000909138022817390771F0E0913502F091E2
:100AB0003602EB50FE4F40833093360220933502CE
:100AC00002C08091C600FF91EF919F918F914F914D
:100AD0003F912F910F900FBE0F901F9018951F926E
:100AE0000F920FB60F9211242F933F938F939F93E2
:100AF000EF93FF932091790230917A0280917B02EB
:100B000090917C022817390731F48091C1008F7DC4
:100B10008093C10014C0E0917B02F0917C02E75CFD
:100B2000FD4F208180917B0290917C0201968F7312
:100B3000907090937C0280937B022093C600FF917B
:100B4000EF919F918F913F912F910F900FBE0F903A
:100B50001F901895AF92BF92DF92EF92FF920F9382
:100B60001F93CF93DF93EC017A018B01DD2440309A
:100B700081EE580780E0680780E0780711F0DD24F7
:100B8000D39491E0A92EB12CEC89FD89DD2069F088
:100B9000C50108A002C0880F991F0A94E2F780835C
:100BA00060E079E08DE390E005C0108260E874E8D1
:100BB0008EE190E0A80197010E9471082150304019
:100BC00040405040569547953795279580E1203015
:100BD000380720F0DD2011F0DD24D6CFE889F9892F
:100BE0003083EA89FB89208319A2EE89FF8940813D
:100BF00021E030E0C9010C8C02C0880F991F0A94D3
:100C0000E2F7482B4083EE89FF894081C9010D8CB2
:100C100002C0880F991F0A94E2F7482B4083EE899F
:100C2000FF894081C9010E8C02C0880F991F0A9468
:100C3000E2F7482B4083EE89FF8980810F8C02C048
:100C4000220F331F0A94E2F7209528232083DF9197
:100C5000CF911F910F91FF90EF90DF90BF90AF90D9
:100C60000895DC011C96ED91FC911D97E05CFF4F0F
:100C70008191919120813181805C9F4F821B930BE8
:100C800060E470E00E945E0808958DE792E00E94A3
:100C90003106892B11F00E9433050895DC011C9662
:100CA000ED91FC911D97E05CFF4F20813181E05474
:100CB000F040DF01AE5BBF4F8D919C9111972817DB
:100CC000390719F42FEF3FEF07C08D919C91E80F82
:100CD000F91F8081282F30E0C9010895DC011C969E
:100CE000ED91FC911D97E05CFF4F20813181E05434
:100CF000F040DF01AE5BBF4F8D919C91119728179B
:100D0000390719F42FEF3FEF10C08D919C91119787
:100D1000E80FF91F20818D919C91119701968F7397
:100D2000907011969C938E9330E0C9010895DC0178
:100D300091968C919197882339F05496ED91FC917E
:100D40005597808186FFF9CF91961C920895CF9395
:100D5000DF93EC01EE85FF85E05CFF4F2081318160
:100D6000E054F0402F5F3F4F2F733070DF01AE5BD8
:100D7000BF4F8D919C91119728173907D1F3E05CF3
:100D8000FF4F80819181E054F040E80FF91F6083AC
:100D9000EE85FF85E05CFF4F31832083EE89FF897C
:100DA000208181E090E00F8C02C0880F991F0A9487
:100DB000E2F7282B208381E089A3EC89FD898081DB
:100DC0008064808381E090E0DF91CF91089510925C
:100DD000800210927F0288EE93E0A0E0B0E0809362
:100DE000810290938202A0938302B093840280E2F6
:100DF00091E090937E0280937D0285EF91E0909345
:100E00008A028093890289E392E090938C02809316
:100E10008B0285EC90E090938E0280938D0284EC9F
:100E200090E09093900280938F0280EC90E09093FA
:100E300092028093910281EC90E0909394028093CF
:100E4000930282EC90E0909396028093950286EC58
:100E500090E0909398028093970284E080939902A7
:100E600083E080939A0287E080939B0285E08093E1
:100E70009C0281E080939D0208950895CF93DF93B3
:100E80000E9498040E943D070E94D200C5E4D6E06B
:100E90000E948D002097E1F30E944506F9CFCF9282
:100EA000DF92EF92FF920F931F93CF93DF937C011A
:100EB0006B018A01C0E0D0E00FC0D6016D916D01D9
:100EC000D701ED91FC910190F081E02DC7010995CA
:100ED000C80FD91F015010400115110571F7CE013F
:100EE000DF91CF911F910F91FF90EF90DF90CF9006
:100EF0000895EF92FF920F931F938C01DC01ED9107
:100F0000FC910190F081E02D6DE009957C01D80104
:100F1000ED91FC910190F081E02DC8016AE0099506
:100F20009C012E0D3F1DC9011F910F91FF90EF9065
:100F30000895CF93DF93EC016115710519F420E05A
:100F400030E00FC0DB010D900020E9F71197A61BE0
:100F5000B70BE881F9810280F381E02DAD0109959D
:100F60009C01C901DF91CF9108954F925F927F92CA
:100F70008F929F92AF92BF92CF92DF92EF92FF92A9
:100F80000F931F93DF93CF93CDB7DEB7A1970FB623
:100F9000F894DEBF0FBECDBF2C01742ECB012230E2
:100FA00008F42AE019A231E2C32ED12CCC0EDD1EAA
:100FB000822E9924AA24BB24672D752FA5019401A4
:100FC0000E94710879018A01C801B701A501940145
:100FD0000E943F08472D461B0894C108D1084A309B
:100FE00014F4405D01C0495CF6014083E114F10452
:100FF0000105110521F07E2C5F2DC801DDCFC20156
:10100000B6010E949907A1960FB6F894DEBF0FBEF5
:10101000CDBFCF91DF911F910F91FF90EF90DF90A7
:10102000CF90BF90AF909F908F907F905F904F90A8
:101030000895DC012115310541F4ED91FC910190F9
:10104000F081E02D642F099508950E94B507089559
:10105000EF92FF920F931F937C010E9419088C015D
:10106000C7010E9479079C01200F311FC9011F9100
:101070000F91FF90EF9008950E9499070895629F45
:10108000D001739FF001829FE00DF11D649FE00D80
:10109000F11D929FF00D839FF00D749FF00D659FE1
:1010A000F00D9927729FB00DE11DF91F639FB00DE0
:1010B000E11DF91FBD01CF011124089597FB092EF1
:1010C00007260AD077FD04D02ED006D000201AF4CF
:1010D000709561957F4F0895F6F7909581959F4F94
:1010E0000895A1E21A2EAA1BBB1BFD010DC0AA1F69
:1010F000BB1FEE1FFF1FA217B307E407F50720F081
:10110000A21BB30BE40BF50B661F771F881F991FFB
:101110001A9469F760957095809590959B01AC0144
:10112000BD01CF010895AA1BBB1B51E107C0AA1F37
:10113000BB1FA617B70710F0A61BB70B881F991F78
:101140005A95A9F780959095BC01CD010895EE0FB1
:0E115000FF1F0590F491E02D0994F894FFCF55
:10115E004C6F6F702054696D653A200000000000DE
:10116E00930162011B01240139014A0100000000B4
:0C117E00A7064F0731066E064E069706C6
:00000001FF
